:100000000C946C000C947E000C947E000C947E008A
:100010000C947E000C947E000C947E000C947E0068
:100020000C947E000C947E000C947E000C947E0058
:100030000C947E000C947E000C947E000C947E0048
:100040000C947E000C947E000C947E000C947E0038
:100050000C947E000C947E000C947E000C947E0028
:100060000C947E000C947E00F3010D020D020D0233
:100070000D020D02A902A902A902A902340234024A
:1000800034025B025B025B025B025B025B02A90261
:10009000A902A902820282028202820282028202F2
:1000A0002704500450045004500450042805280527
:1000B00028052805860486048604BC04BC04BC0408
:1000C000BC04BC04BC04280528052805F204F2047D
:1000D000F204F204F204F20411241FBECFEFD8E0C0
:1000E000DEBFCDBF21E0A0E0B1E001C01D92A8318C
:1000F000B207E1F70E9480000C9482070C94000084
:10010000CF93DF93CDB7DEB72D970FB6F894DEBF50
:100110000FBECDBF25E044E063E082E00E94B00264
:1001200021E140E16FE08EE00E942F058EE190E03A
:100130009E838D838D819E81019798878F838D818A
:100140009E812DB73EB7281B390B0FB6F8943EBFE2
:100150000FBE2DBF8DB79EB701969A87898782E122
:100160009AE79C878B871B821A8258C08A818F5F8F
:100170008A831C822EC00E94D4068D878C81882F92
:1001800090E029853A85820F931F2D85FC012083FD
:100190008D85882F90E08130910579F0823091052E
:1001A0001CF4892B39F012C08230910549F0039775
:1001B00051F00CC00E94A80309C00E94B80306C0F9
:1001C0000E94C80303C00E94D80300008C818F5F87
:1001D0008C839C818A81981770F21C8216C08B8553
:1001E0009C850E94550589838C81882F90E0298504
:1001F0003A85820F931FFC0190818981981711F035
:1002000081E08B838C818F5F8C839C818A8198179E
:1002100018F48B81882319F30E9479068B81882337
:1002200009F4A4CF0E94E8030E94790684E0898340
:100230001C8221C08B859C850E94550589838C81F9
:100240008E31B1F40E94F80383E590E023E530E0BD
:10025000F9012081217F2460FC01208383E590E067
:1002600023E530E0F90120812160FC01208388959D
:100270008C818F5F8C8389818430E1F20E94F80346
:100280000E94790670CFCF93DF93CDB7DEB78AE2B5
:1002900090E02AE230E0F90120812062FC01208315
:1002A0000000DF91CF910895CF93DF93CDB7DEB7F4
:1002B00087E490E022EBFC01208388E490E029E5CC
:1002C000FC01208384E490E023E2FC01208385E4A8
:1002D00090E02CE0FC0120830000DF91CF91089595
:1002E000CF93DF93CDB7DEB787E490E02EE9FC0132
:1002F000208388E490E02FE4FC01208384E490E0F4
:1003000023E2FC01208385E490E02CE0FC012083C3
:100310000000DF91CF910895CF93DF93CDB7DEB783
:1003200087E490E02EE8FC01208388E490E027E455
:10033000FC01208384E490E023E2FC01208385E437
:1003400090E02CE0FC0120830000DF91CF91089524
:10035000CF93DF93CDB7DEB787E490E02EE7FC01C3
:10036000208388E490E02FE3FC01208384E490E084
:1003700023E2FC01208385E490E02CE0FC01208353
:100380000000DF91CF910895CF93DF93CDB7DEB713
:1003900084E490E0FC01108285E490E0FC0110828E
:1003A0000000DF91CF910895CF93DF9300D01F928B
:1003B000CDB7DEB789837B836A838981882F90E0FC
:1003C000092E000CAA0BBB0B41E050E02BE130E002
:1003D000841B950B2817390708F4BBC08C5C9F4F12
:1003E000FC010C947C078A819B8128E230E0FC01AF
:1003F000318320838A819B8120E4FC01228387E270
:1004000090E027E230E0F90140812A813B81F90147
:100410002281242BFC0120839CC08A819B812BE2BA
:1004200030E0FC01318320838981882F90E09C019A
:100430002250310981E090E002C0880F991F2A956F
:10044000E2F7282F8A819B81FC0122838AE290E0D7
:100450002AE230E0F90140812A813B81F9012281C1
:10046000242BFC01208375C08A819B812BE230E024
:10047000FC01318320838981882F90E09C012650E4
:10048000310981E090E002C0880F991F2A95E2F7B8
:10049000282F8A819B81FC0122838AE290E02AE254
:1004A00030E0F90140812A813B81F9012281242B2E
:1004B000FC0120834EC08A819B8125E230E0FC0153
:1004C000318320838981882F90E09C012E5031094F
:1004D00081E090E002C0880F991F2A95E2F7282F4B
:1004E0008A819B81FC01228384E290E024E230E057
:1004F000F90140812A813B81F9012281242BFC01F1
:10050000208327C08A819B8128E230E0FC0131836F
:1005100020838981882F90E09C012751310981E057
:1005200090E002C0880F991F2A95E2F7282F8A8150
:100530009B81FC01228387E290E027E230E0F90111
:1005400040812A813B81F9012281242BFC012083F7
:10055000000000000F900F900F90DF91CF91089551
:10056000CF93DF9300D000D0CDB7DEB789836A8305
:100570004B832C8363E071E089810E94D40160E0A9
:1005800071E08A810E94D40169E071E08B810E9450
:10059000D40166E071E08C810E94D4010E94430185
:1005A00000000F900F900F900F90DF91CF91089562
:1005B000CF93DF93CDB7DEB7809103019091040113
:1005C0002091030130910401F9013081209105014E
:1005D000232BFC0120830E9454010000DF91CF9166
:1005E0000895CF93DF93CDB7DEB78091000190914E
:1005F00001012091000130910101F9013081209128
:100600000201232BFC0120830E9470010000DF9176
:10061000CF910895CF93DF93CDB7DEB780910901D5
:1006200090910A012091090130910A01F90130816C
:1006300020910B01232BFC0120830E948C010000E0
:10064000DF91CF910895CF93DF93CDB7DEB780913F
:100650000601909107012091060130910701F901EF
:10066000308120910801232BFC0120830E94A801E6
:100670000000DF91CF910895CF93DF93CDB7DEB720
:1006800080910301909104012091030130910401B4
:10069000F9012081322F2091050120952323FC01AF
:1006A00020830E94C4010000DF91CF910895CF9371
:1006B000DF93CDB7DEB780910001909101012091C9
:1006C000000130910101F9012081322F20910201B6
:1006D00020952323FC0120830E94C4010000DF91A8
:1006E000CF910895CF93DF93CDB7DEB78091090105
:1006F00090910A012091090130910A01F9012081AC
:10070000322F20910B0120952323FC0120830E948E
:10071000C4010000DF91CF910895CF93DF93CDB74F
:10072000DEB780910601909107012091060130917A
:100730000701F9012081322F209108012095232300
:10074000FC0120830E94C4010000DF91CF91089535
:10075000CF93DF93CDB7DEB70E94D8020E9479060F
:100760000E943C030E948A060000DF91CF91089509
:10077000CF93DF93CDB7DEB70E94F1020E947906D6
:100780000E9457030E948A060000DF91CF910895CE
:10079000CF93DF93CDB7DEB70E940A030E9479069C
:1007A0000E9472030E948A060000DF91CF91089593
:1007B000CF93DF93CDB7DEB70E9423030E94790663
:1007C0000E948D030E948A060000DF91CF91089558
:1007D000CF93DF93CDB7DEB70E94D8020E94F1021B
:1007E0000E940A030E9423030000DF91CF91089525
:1007F000CF93DF93CDB7DEB70E943C030E9457032F
:100800000E9472030E948D030000DF91CF91089532
:10081000CF93DF9300D01F92CDB7DEB789837B8360
:100820006A838981882F90E0092E000CAA0BBB0BEC
:1008300041E050E02BE130E0841B950B281739078D
:1008400008F406C1805B9F4FFC010C947C078A81F1
:100850009B8126E230E0FC01318320838A819B81E9
:1008600020E4FC01228387E290E027E230E0F901F6
:100870002081422F2A813B81F90122812095242366
:10088000FC01208388E290E028E230E0F901408119
:100890002A813B81F9012281242BFC012083D8C0CD
:1008A0008A819B8129E230E0FC01318320838981A8
:1008B000882F90E09C012250310981E090E002C035
:1008C000880F991F2A95E2F7282F8A819B81FC01C6
:1008D00022838AE290E02AE230E0F9012081422F6F
:1008E0002A813B81F901228120952423FC01208368
:1008F0008BE290E02BE230E0F90140812A813B81DC
:10090000F9012281242BFC012083A2C08A819B81D2
:1009100029E230E0FC01318320838981882F90E037
:100920009C012650310981E090E002C0880F991F98
:100930002A95E2F7282F8A819B81FC0122838AE293
:1009400090E02AE230E0F9012081422F2A813B81A8
:10095000F901228120952423FC0120838BE290E081
:100960002BE230E0F90140812A813B81F9012281AB
:10097000242BFC0120836CC08A819B8123E230E020
:10098000FC01318320838981882F90E09C012E50C7
:10099000310981E090E002C0880F991F2A95E2F7A3
:1009A000282F8A819B81FC01228384E290E024E24B
:1009B00030E0F9012081422F2A813B81F901228117
:1009C00020952423FC01208385E290E025E230E09D
:1009D000F90140812A813B81F9012281242BFC010C
:1009E000208336C08A819B8126E230E0FC0131837E
:1009F00020838981882F90E09C012751310981E073
:100A000090E002C0880F991F2A95E2F7282F8A816B
:100A10009B81FC01228387E290E027E230E0F9012C
:100A20002081422F2A813B81F901228120952423B4
:100A3000FC01208388E290E028E230E0F901408167
:100A40002A813B81F9012281242BFC0120830000B3
:100A500000000F900F900F90DF91CF910895CF93EA
:100A6000DF9300D000D0CDB7DEB789836A834B8394
:100A70002C836CE071E089810E9408046FE071E0D2
:100A80008A810E94080462E171E08B810E9408045F
:100A900065E171E08C810E94080400000F900F90C6
:100AA0000F900F90DF91CF910895CF93DF9300D0F7
:100AB0001F92CDB7DEB79B838A8319820E94AC0652
:100AC0003CC080910C0190910D01FC0190818091BE
:100AD0000E018923882321F40E94D80281E08983B2
:100AE00080910F0190911001FC0190818091110182
:100AF0008923882321F40E94F10282E08983809176
:100B0000120190911301FC019081809114018923BD
:100B1000882321F40E940A0383E0898380911501D0
:100B200090911601FC0190818091170189238823FF
:100B300021F40E94230384E089838981882359F466
:100B400084E890E0FC01208131818A819B81281713
:100B5000390708F4B6CF8981882309F45FC02FC014
:100B6000000080910C0190910D01FC019081809119
:100B70000E0189238823A9F380910F019091100120
:100B8000FC019081809111018923882351F3809188
:100B9000120190911301FC0190818091140189232D
:100BA0008823F9F28091150190911601FC01908142
:100BB0008091170189238823A1F20E949B068091CE
:100BC0000C0190910D01FC01908180910E0189230F
:100BD000882331F280910F0190911001FC019081E6
:100BE000809111018923882309F4BACF80911201E1
:100BF00090911301FC019081809114018923882335
:100C000009F4AECF8091150190911601FC019081FD
:100C1000809117018923882309F4A2CF8981882331
:100C200011F485E089838981813011F40E943C03AD
:100C30008981823011F40E9457038981833011F435
:100C40000E9472038981843011F40E948D0389818E
:100C500081500F900F900F90DF91CF910895CF9317
:100C6000DF93CDB7DEB784E890E0FC0111821082FB
:100C700081E890E021E830E0F90120812160FC0169
:100C8000208381E890E021E830E0F90120812D7F88
:100C9000FC01208381E890E021E830E0F901208127
:100CA0002460FC012083000086E390E0FC01808149
:100CB000882F90E082709927892BB1F381E890E02A
:100CC00021E830E0F90120812E7FFC01208381E8BA
:100CD00090E021E830E0F90120812B7FFC012083A6
:100CE00086E390E022E0FC0120830000DF91CF91B9
:100CF0000895CF93DF93CDB7DEB788E890E029E081
:100D00003DE3FC01318320830E942F060000DF9128
:100D1000CF910895CF93DF93CDB7DEB788E890E009
:100D200025E33CE0FC01318320830E942F06000074
:100D3000DF91CF910895CF93DF93CDB7DEB788E8E9
:100D400090E020E233E0FC01318320830E942F06F3
:100D50000000DF91CF910895CF93DF93CDB7DEB739
:100D600084E890E0FC011182108281E890E021E8A3
:100D700030E0F90120812160FC01208381E890E0CE
:100D800021E830E0F90120812D7FFC01208381E8FA
:100D900090E021E830E0F90120812460FC0120830B
:100DA0000000DF91CF910895CF93DF9300D0CDB7AE
:100DB000DEB784E690E024E630E0F90120812E7F62
:100DC000FC0120838AE790E02AE730E0F9012081E6
:100DD0002068FC0120838AE790E02AE730E0F901EF
:100DE00020812160FC0120838AE790E02AE730E03F
:100DF000F90120812260FC0120838AE790E02AE744
:100E000030E0F90120812460FC0120838CE790E030
:100E10002CE730E0F90120812068FC0120838CE779
:100E200090E02CE730E0F90120812064FC01208370
:100E30008CE790E02CE730E0F90120812F7DFC0168
:100E400020838CE790E02CE730E0F90120812860D6
:100E5000FC0120838CE790E02CE730E0F901208151
:100E60002B7FFC0120838CE790E02CE730E0F90138
:100E700020812D7FFC0120838CE790E02CE730E07F
:100E8000F90120812E7FFC0120838AE790E02AE788
:100E900030E0F90120812064FC01208300008AE712
:100EA00090E0FC018081882F90E080719927892B48
:100EB000B1F38AE790E02AE730E0F9012081206170
:100EC000FC01208388E790E0FC018081898389E729
:100ED00090E0FC0180818A838AE790E02AE730E095
:100EE000F90120812F77FC012083898183700F9085
:100EF0000F90DF91CF910895EE0FFF1F0590F491B1
:080F0000E02D0994F894FFCFE5
:00000001FF
